:100000000DC025C024C023C023C021C020C01FC0F4
:100010001EC01DC01CC01BC01AC019C011241FBEA9
:10002000CFEDCDBF10E0A0E6B0E0E6E1F1E003C027
:10003000C89531960D92A036B107D1F710E0A0E631
:10004000B0E001C01D92A336B107E1F75CC0D8CF84
:100050001F920F920FB60F9211242F938F939F939D
:10006000809160009927009719F00197C1F029C08D
:10007000809161009091620001969093620080935C
:1000800061008091610090916200845F9140C9F4A9
:1000900081E08093600088B3809588BB12C0809116
:1000A00061009091620001979093620080936100DB
:1000B0008091610090916200C29719F410926000E3
:1000C000A89582B3809582BB809161009091620077
:1000D0009BBD8ABD9F918F912F910F900FBE0F9066
:1000E0001F90189590E49FBD8AE08EBD1BBC1ABC82
:1000F00082E087BB99BF81E088BB87BB82BB83E07E
:1001000081BB78940895CFEDD0E0DEBFCDBFEADFAC
:060110008FE081BDFFCF6E
:00000001FF
